S00F000070726F6A6563742E737265631E
S11300000C9434000C9451000C9451000C94510045
S11300100C9451000C9451000C9451000C94510018
S11300200C9451000C9451000C9451000C94D40085
S11300300C9451000C9451000C9451000C945100F8
S11300400C9451000C9451000C9451000C945100E8
S11300500C9451000C9451000C9451000C945100D8
S11300600C9451000C94510011241FBECFEFD8E022
S1130070DEBFCDBF11E0A0E0B1E0E0EDF9E002C0E9
S113008005900D92A430B107D9F721E0A4E0B1E0C6
S113009001C01D92AE32B207E1F70E94FE020C9439
S11300A0E6040C9400000F931F93CF93DF938C010D
S11300B08091060190910701892B81F0E6E0F1E03F
S11300C021E030E0822FE901A781B0852F5F3F4F07
S11300D03796AB2BB9F7853021F415C0C0E0D0E0DA
S11300E080E0FE01EE0FFF1FEE0FFF1FEE0FFF1F5C
S11300F0EC1BFD0BEA5FFE4F118300837383628365
S1130100558344831682DF91CF911F910F910895F7
S113011027E0829FC0011124FC01EA5FFE4F118297
S113012010821382128215821482168280E008954E
S1130130EF92FF921F93CF93DF93C6E0D1E010E0DC
S11301408E81882379F0E881F981309759F00995F7
S11301508E8181508E838C819D81892B19F4812F0E
S11301600E9488001F5F2796153051F7DF91CF91C9
S11301701F91FF90EF900895CF93C0E08C2F0E94C1
S11301808800CF5FC530D1F781E792E09093890072
S1130190809388008CE08093810082E080936F00DC
S11301A0CF910895789408951F920F920FB60F92ED
S11301B011242F933F938F939F93AF93BF93EF9308
S11301C0FF93E6E0F1E029E231E080819181892B1F
S11301D091F082819381009759F486818F5F8683A1
S11301E084819581009739F001979383828303C0BA
S11301F00197938382833796E217F30731F7FF91D0
S1130200EF91BF91AF919F918F913F912F910F905B
S11302100FBE0F901F9018951092C50083E3809332
S1130220C4001092C00088E18093C10086E08093EE
S1130230C20008958FEF84B98AB90895E0ECF0E024
S1130240908195FFFDCF8093C6000895CF93DF93EF
S1130250EC018881882331F021960E941E01899146
S11302608111FBCFDF91CF9108958F929F92AF922E
S1130270BF92EF92FF920F931F93CF93DF93CDB76B
S1130280DEB72A970FB6F894DEBF0FBECDBF9E012E
S11302902F5F3F4F790100E010E00F2EFAE08F2E20
S11302A0912CA12CB12CF02D0F5F1F4FA5019401AF
S11302B00E94C404605DF70161937F01622F732F74
S11302C0842F952F611571058105910569F7011535
S11302D0110589F0EE24E394F12CEC0EFD1EE00EE2
S11302E0F11E01501109F70182917F010E941E0144
S11302F001151105B1F72A960FB6F894DEBF0FBEAB
S1130300CDBFDF91CF911F910F91FF90EF90BF90E0
S1130310AF909F908F9008958A30C8F42A9A2FEF57
S113032034E39CE0215030409040E1F700C00000ED
S113033095B1937095B92FEF34E39CE02150304090
S11303409040E1F700C000008F5F8A3039F70895CC
S113035081E085B980E00E948C01089582E085B92E
S113036080E00E948C01089580E480937C0087E8FB
S113037080937A000895ECE7F0E09081987F87708D
S1130380892B8083EAE7F0E0808180648083808128
S113039086FDFDCF8091780090917900089580E0EA
S11303A00E94BB0190932D0180932C018639910505
S11303B088F09C01275931092539310570F02659F7
S11303C03109213C314060F08F3E924060F484E674
S11303D090E0089580E090E0089581E090E0089531
S11303E082E090E0089583E090E0089581E00E9427
S11303F0BB0190932A0180932901BC0180E090E025
S11304000E94C90320E030E040EA50E40E9457040F
S113041020E030E040E85AE30E94570420E030E056
S113042040E05FE30E94260320E030E040E251E434
S11304300E94570420E030E048EC52E40E94570444
S11304400E949303CB01089582E091E00E9426016B
S11304500E94CF01BC01990F880B990B0E943501B2
S11304600E94F601BC01990F880B990B0E9435017B
S113047008954F925F926F927F928F929F92AF9264
S1130480BF92CF92DF92EF92FF921F93CF93DF93AD
S11304900E94CF012C01C0ECD0E00F2EF6ECEF2E21
S11304A0F12CF02D0F2EF3E08F2E912CF02D68946B
S11304B0662461F8712CAA24A394B12C0F2EFFECAE
S11304C0CF2EF1E0DF2EF02D85C0F70110811F360D
S11304D069F480910401909105010197D1F410927F
S11304E00501109204010E94A80113C0143669F496
S11304F08091040190910501892B91F4B09205013A
S1130500A09204010E94AE010BC0133711F415B878
S11305100EC0173729F410920101109200010EC089
S1130520183729F4B0920101A09200010DC01937C7
S113053029F4709201016092000106C01A3721F477
S1130540909201018092000180910001909101013B
S113055048165906F9F48091040190910501892BFC
S113056049F5B0920501A09204010E94AE01809168
S11305700001909101014816590661F4809104012B
S113058090910501892BB1F4B0920501A092040168
S11305900E94AE01F3E0CF16D10461F4809104010E
S11305A090910501892B31F4B0920501A0920401C8
S11305B00E94AE010E94CF01019761F48091040171
S11305C090910501019731F41092050110920401F4
S11305D00E94A801888188230CF477CFDF91CF9102
S11305E01F91FF90EF90DF90CF90BF90AF909F90BE
S11305F08F907F906F905F904F90089517B80E94EE
S11306001A010E94B4010E940C010E94BC0040E93E
S113061051E060E070E086EF91E00E9453004CE20C
S113062051E060E070E08FEC91E00E94530048E5F7
S113063052E060E070E084E292E00E9453000E9485
S1130640D2000E9498000E943902FBCF5058BB2769
S1130650AA270E943E030C941D040E940F0438F044
S11306600E94160420F039F49F3F19F426F40C94E8
S11306700C040EF4E095E7FB0C940604E92F0E94A9
S11306802E0458F3BA17620773078407950720F0FE
S113069079F4A6F50C9450040EF4E0950B2EBA2FC1
S11306A0A02D0B01B90190010C01CA01A001112474
S11306B0FF27591B99F0593F50F4503E68F11A1620
S11306C0F040A22F232F342F4427585FF3CF4695B1
S11306D037952795A795F0405395C9F77EF41F16D3
S11306E0BA0B620B730B840BBAF09150A1F0FF0F9D
S11306F0BB1F661F771F881FC2F70EC0BA0F621F89
S1130700731F841F48F4879577956795B795F79578
S11307109E3F08F0B0CF9395880F08F09927EE0F0D
S11307209795879508950E949A036894B1110C9443
S1130730510408950E94360488F09F5798F0B92F09
S11307409927B751B0F0E1F0660F771F881F991F02
S11307501AF0BA95C9F714C0B13091F00E94500450
S1130760B1E008950C945004672F782F8827B85F60
S113077039F0B93FCCF3869577956795B395D9F75A
S11307803EF490958095709561957F4F8F4F9F4F64
S11307900895E89409C097FB3EF490958095709570
S11307A061957F4F8F4F9F4F9923A9F0F92F96E9B9
S11307B0BB279395F695879577956795B795F1112E
S11307C0F8CFFAF4BB0F11F460FF1BC06F5F7F4FCB
S11307D08F4F9F4F16C0882311F096E911C07723DD
S11307E021F09EE8872F762F05C0662371F096E8E6
S11307F0862F70E060E02AF09A95660F771F881FB5
S1130800DAF7880F9695879597F9089597F99F6772
S113081080E870E060E008959FEF80EC0895002484
S11308200A941616170618060906089500240A9451
S113083012161306140605060895092E0394000CD7
S113084011F4882352F0BB0F40F4BF2B11F460FF66
S113085004C06F5F7F4F8F4F9F4F089557FD90588F
S1130860440F551F59F05F3F71F04795880F97FB70
S1130870991F61F09F3F79F087950895121613062A
S11308801406551FF2CF4695F1DF08C01616170659
S11308901806991FF1CF869571056105089408958E
S11308A0E894BB2766277727CB0197F908950E9420
S11308B06A040C941D040E940F0438F00E9416046C
S11308C020F0952311F00C9406040C940C041124CC
S11308D00C9451040E942E0470F3959FC1F3950F5C
S11308E050E0551F629FF001729FBB27F00DB11DB0
S11308F0639FAA27F00DB11DAA1F649F6627B00D40
S1130900A11D661F829F2227B00DA11D621F739F28
S1130910B00DA11D621F839FA00D611D221F749F36
S11309203327A00D611D231F849F600D211D822F7D
S1130930762F6A2F11249F5750409AF0F1F08823A4
S11309404AF0EE0FFF1FBB1F661F771F881F9150D1
S11309505040A9F79E3F510580F00C9406040C9476
S113096051045F3FE4F3983ED4F3869577956795F9
S1130970B795F795E7959F5FC1F7FE2B880F911DFB
S11309809695879597F90895A1E21A2EAA1BBB1B89
S1130990FD010DC0AA1FBB1FEE1FFF1FA217B30747
S11309A0E407F50720F0A21BB30BE40BF50B661F5D
S11309B0771F881F991F1A9469F760957095809521
S11309C090959B01AC01BD01CF010895F894FFCF30
S10709D003007800A4
S9030000FC
